:0E0000000C9461000C9400000C9400000C9411
:10000E0000000C9400000C9400000C9400000C9462
:10001E0000000C9400000C9400000C9400000C9452
:10002E0000000C9400000C9400000C9400000C9442
:10003E0000000C9400000C9400000C9400000C9432
:10004E0000000C9400001027E80364000A00010071
:10005E0000100001100001004E6869657420646F85
:10006E003A202020202020200053656E736F7220CE
:10007E004572726F720025642E25640041546D65C1
:10008E006761313600445331384232302052656157
:10009E00647900001100600166000D0071017700A7
:1000AE0006007E017100090084018A000E008D0198
:1000BE0093000000F894EE27ECBBF1E0FBBFEBBF22
:1000CE00E5BF8DE0A2E0BB27ED938A95E9F780E0CE
:1000DE0094E0A0E6ED930197E9F7E2EAF0E085916E
:1000EE009591009761F0A591B59105901590BF017E
:1000FE00F00105900D920197E1F7FB01F0CFEFE5CE
:10010E00EDBFE4E0EEBFC0E6D1E00C940202979A98
:10011E0085E08A95F1F7979888EC90E00197F1F7D2
:10012E0008951A931A2FE5B3EF70AE2FE12FEF70EB
:10013E00E295E07FEA2BE5BBEADFAAC01A930A93A9
:10014E001A2F0A819598103011F4969801C0969A3C
:10015E00E02FE295EF70AE2FE4DFE02FEF70AE2FC1
:10016E00E0DF49C01A931A2F1A93A0E0E7DF11308F
:10017E0011F0123029F4A2E0B0E00E94F50404C0A0
:10018E0088EC90E00197F1F783C01A931A2F1A9317
:10019E00A1E0D4DF7DC0E4B3E06FE4BB8E9A8D9A0C
:1001AE008F9A969895989798A4E10E94EF03A5E0F0
:1001BE000E94EF038CE291E00197F1F7A3E0B1DF2B
:1001CE008CE291E00197F1F7A2E0ABDFA8E2CADF83
:1001DE00ACE0C8DFA6E0C6DFA1E0C4DF08951A9345
:1001EE000A931A2F0A81103019F4A02FA05802C0BA
:1001FE00A02FA054B7DF19810881239608951A9372
:10020E000A938D01D801EC91E03029F0AC91BDDF5D
:10021E000F5F1F4FF7CF5DC0DF98D79A0895D7981D
:10022E00DF9A0895E0E0CF99E1E008951A93F4DFA4
:10023E0088EE93E00197F1F7F2DF8BEB8A95F1F7F9
:10024E00F1DF0E9455041E2F84E393E00197F1F72E
:10025E001EC01A931A2F103031F00E94F5038BEA4C
:10026E008A95F1F708C0D8DF80EA8A95F1F7D7DFD3
:10027E008BE18A95F1F70CC01A930E94F50388E181
:10028E008A95F1F7CFDF1E2F83E98A95F1F7E12FDB
:10029E00199108951A930A930A2F10E0183038F422
:1002AE00E02FE170AE2FD5DF06951F5FF7CF11C09F
:1002BE001A930A9300E010E0183050F4DDDFE030BE
:1002CE0029F0E12FA1E00E9443040E2B1F5FF4CF13
:1002DE00E02F09911991089524970E941B04A6DF1F
:1002EE00E03019F4EFE0F7E235C0ACECD3DFA4E474
:1002FE00D1DFAEEEB2E00E94F50498DFE03019F4E3
:10030E00EFE0F7E227C0ACECC5DFAEEBC3DFD0DF2A
:10031E001E2FCEDF0E2FF02FE0E0DF01E12FF0E0F9
:10032E00EA2BFB2B9F01D9010E945004EAE0F0E07A
:10033E0060E070E00E947A04DF01CB01E0E1F0E0C2
:10034E0060E070E00E94BB04EC83FD836E837F83CC
:10035E00EC81FD810E942204289608952A970E941E
:10036E001B049D01E0E0EA93A0E039DFA0E6B1E0D6
:10037E0046DFE4E0EA93A1E032DFEFE0F7E2E217D6
:10038E00F30719F4A1E7B1E031C033233AF4ADE23B
:10039E00FCDEF9010E942F048F0101C08901FE01CC
:1003AE003496FA93EA93E4E8F0E0FA93EA93D801EC
:1003BE00EAE0F0E00E9492040E944B040E94F004D6
:1003CE00D801EAE0F0E00E94C0040E944B040E94B3
:1003DE00F00488E00E94A0032C96DE0114960FDF35
:1003EE00AFEDD3DEA3E4D1DEAEE7B1E008DF0E94CD
:1003FE0022042E960895E4B7E068E4BFE4B7E068FF
:10040E00E4BFE0E0EABBEBBBD798DF9AC4DEE0E0E6
:10041E00EA93A0E0E4DEA4E8B1E0F1DEE0E0EA93E6
:10042E00A1E0DDDEADE8B1E0EADEA8EEB3E00E94C9
:10043E00F504A1E097DE50DF8F01D8018FDFA4EF26
:10044E00B1E00E94F504F7CFFFCF0E9419049D0181
:10045E005E8112960E94E804309731F1D90114960C
:10046E000E94E8048F01309759F00230E0E01E0739
:10047E0080F0F80131978F01D9011496ED93FC931A
:10048E00D9011296ED91FD913196FE93EE9331972F
:10049E005083D9010E94E804FF232AF0ED91FD91CB
:1004AE003196FE93EE9305C0D901EFEFFFEFED937A
:1004BE00FC930E94200427960895BA93AA93269738
:1004CE000E94190410E0AC85BD85E0E0F0E0ED93EC
:1004DE00FC93EA89FB893196EA8BFB8B3197E49189
:1004EE002E2FE03009F41DC1E12FE03039F4253212
:1004FE0011F411E002C00E94FC0312C1E130A9F414
:10050E00253219F40E94FC030AC112E040E000E01B
:10051E002D3211F401E004C12B3211F44BE200C173
:10052E00203211F440E2FCC002C0E23039F450E057
:10053E0013E0203311F40068F3C003C0E33009F078
:10054E00EFC0203310F02A3308F007C0AAE05A9FFC
:10055E00502DE22FE0535E0FE3C0E22FE33649F455
:10056E000E940304E889F989A481AA930E940904D0
:10057E00D6C0E33741F40E9403040E940F040E9488
:10058E00D6031E2F0AC0E03761F40E9403040E94B6
:10059E000F040E94E2031E2F086002600F7730E006
:1005AE003CC0E43611F0E93611F4046002C0E537C0
:1005BE0031F4E4E5F0E0EE83FF8315E00CC0E8359E
:1005CE0011F4086003C0E83709F0A9C0EEE5F0E0C9
:1005DE00EE83FF8314E002FF17C00E940304A88974
:1005EE00B9891496ED91FD91EA87FB87AB85AA2315
:1005FE002AF40E942F04EA87FB874DE2403011F067
:10060E001F5F01C00B7F09C00E940304A889B9892E
:10061E0014960E94E804EA87FB8700FD11C01517A7
:10062E0078F407FF08C002FF04C00B7F242F11507F
:10063E0001C020E301C020E20E94FC035150EFCF25
:10064E00312F01FF17C03030A1F003FF06C0EE813D
:10065E00FF812591EE83FF8305C0AE81BF812D9171
:10066E00AE83BF830E94FC03503009F051503150CD
:10067E00EACF4BC020E3EE81FF810E94EC04E887B5
:10068E00F987EE81FF813296EE83FF83E885F98547
:10069E00AA85BB85AE17BF0750F02F5FA885B98519
:1006AE00EA85FB85EA1BFB0BEA87FB87EFCF2A3334
:1006BE0028F003FF02C0295F01C0295D04FD1AC0A6
:1006CE00213320F4A885B985119709F409C0531771
:1006DE0010F000FF01C013C020E207FF0BC020E3A3
:1006EE00006102FF07C00B7F4A930E94090450303D
:1006FE0009F051500E94FC03503009F05150315016
:10070E00A885B985129708F0B5CF00FF08C0503004
:10071E0031F05150E0E2EA930E940904F8CF10E064
:10072E00D8CEAC85BD85ED91FD910E9420046496D6
:10073E000895FF92F82E26970E941904FE010E943A
:10074E00270446855785042E052A19F4EFEFFFEF8F
:10075E0021C0DE0118960E942B048D01488759870F
:10076E00E0E0EA87EB87DE011C960E942B04ED91F8
:10077E00FD91FA93EA931A930A93ECE2F2E0FA935C
:10078E00EA93DE011C9699DE9F01A885B985E0E00B
:10079E00EC93F9010E9420042C96FF900895BA93D1
:1007AE00AA93A991B991EE27FF276D91662311F0B7
:1007BE003196FBCF0895BA93AA93AA27BB27E99146
:1007CE00F9910590002011F01196FBCFFD010895CF
:1007DE00B0E00E94F504A3E00C9498000E9413016F
:1007EE0080E18A95F1F70C9416012A93AD85BE85AA
:1007FE00EF85F88909950895E889F9893497E88B8A
:10080E00F98B0895AD85BE85EF85F8890995089514
:10081E00A889B9891496ED91FD91EE83FF83AE817F
:10082E00BF8108955A934A933A932A931A930A933F
:10083E0008955D814C813B812A811981088108953B
:10084E000024EF0DF01D08950024AF0DB01D089586
:10085E00F195E195F0400895F09560957095E195CC
:10086E00FF4F6F4F7F4F0895B09580959095A1954E
:10087E00BF4F8F4F9F4F0895EE230E2EEA2F19F084
:10088E00EE0F0A94E9F708956F2F660F660B762F19
:10089E0008958B2F880F880B982F0895EE23E1E093
:1008AE0009F0EE2708957A9F702D6B9F700DF89FBB
:1008BE00700DE99F700D6A9F602D710DFB9F600D8D
:1008CE00711DE89F600D711D8827FA9FF02D610D37
:1008DE00781FEB9FF00D611D781FEA9FE02DF10D43
:1008EE00681F781F089561D0DEDF0EF4B5DF08951E
:1008FE000024112490E1AA0FBB1F001C111C0E1A1C
:10090E001F0A18F40E0E1F1E01C0A1609A9599F7CA
:10091E00FD01D00108953BD0EBDF0EF499DF089571
:10092E003F934F935F9300241124A00130E2AA0F4E
:10093E00BB1F881F991F001C111C441F551F0E1A28
:10094E001F0A460B570B28F40E0E1F1E461F571F6D
:10095E0001C0A1603A9559F7FD01BC01D001CA0151
:10096E005F914F913F91089520D0DADF0EF474DF3E
:10097E000895E894B7FF04C0B195A195B04068946E
:10098E00F7FD66DFB5DFFD010EF462DF0895E89432
:10099E00F7FF02C05DDF6894B7FF06C0B195A19561
:1009AE00B04000F8039400FA0895E89477FF02C06F
:1009BE0053DF689497FF04C057DF00F8039400FAE2
:1009CE000895ED91FC91119708950590F491E02D05
:1009DE0008957A936A93FA93EA930895109639F0EC
:1009EE00A89580ED97E00197F1F71197C9F7089553
:00000001FF
